{
  "_format": "hh-sol-artifact-1",
  "contractName": "Factory",
  "sourceName": "contracts/Factory.sol",
  "abi": [
    {
      "anonymous": false,
      "inputs": [
        {
          "indexed": true,
          "internalType": "address",
          "name": "token0",
          "type": "address"
        },
        {
          "indexed": true,
          "internalType": "address",
          "name": "token1",
          "type": "address"
        },
        {
          "indexed": false,
          "internalType": "address",
          "name": "pair",
          "type": "address"
        },
        {
          "indexed": false,
          "internalType": "uint256",
          "name": "",
          "type": "uint256"
        }
      ],
      "name": "PairCreated",
      "type": "event"
    },
    {
      "inputs": [
        {
          "internalType": "uint256",
          "name": "",
          "type": "uint256"
        }
      ],
      "name": "allPairs",
      "outputs": [
        {
          "internalType": "address",
          "name": "",
          "type": "address"
        }
      ],
      "stateMutability": "view",
      "type": "function"
    },
    {
      "inputs": [],
      "name": "allPairsLength",
      "outputs": [
        {
          "internalType": "uint256",
          "name": "",
          "type": "uint256"
        }
      ],
      "stateMutability": "view",
      "type": "function"
    },
    {
      "inputs": [
        {
          "internalType": "address",
          "name": "tokenA",
          "type": "address"
        },
        {
          "internalType": "address",
          "name": "tokenB",
          "type": "address"
        }
      ],
      "name": "createPair",
      "outputs": [
        {
          "internalType": "address",
          "name": "pair",
          "type": "address"
        }
      ],
      "stateMutability": "nonpayable",
      "type": "function"
    },
    {
      "inputs": [
        {
          "internalType": "address",
          "name": "",
          "type": "address"
        },
        {
          "internalType": "address",
          "name": "",
          "type": "address"
        }
      ],
      "name": "getPair",
      "outputs": [
        {
          "internalType": "address",
          "name": "",
          "type": "address"
        }
      ],
      "stateMutability": "view",
      "type": "function"
    }
  ],
  "bytecode": "0x608060405234801561001057600080fd5b506122dd806100206000396000f3fe608060405234801561001057600080fd5b506004361061004c5760003560e01c80631e3dd18b14610051578063574f2ba314610081578063c9c6539614610092578063e6a43905146100a5575b600080fd5b61006461005f3660046103ea565b6100d6565b6040516001600160a01b0390911681526020015b60405180910390f35b600154604051908152602001610078565b6100646100a036600461041f565b610100565b6100646100b336600461041f565b60006020818152928152604080822090935290815220546001600160a01b031681565b600181815481106100e657600080fd5b6000918252602090912001546001600160a01b0316905081565b6000816001600160a01b0316836001600160a01b03160361015e5760405162461bcd60e51b81526020600482015260136024820152724944454e544943414c5f41444452455353455360681b60448201526064015b60405180910390fd5b600080836001600160a01b0316856001600160a01b031610610181578385610184565b84845b90925090506001600160a01b0382166101ce5760405162461bcd60e51b815260206004820152600c60248201526b5a45524f5f4144445245535360a01b6044820152606401610155565b6001600160a01b038281166000908152602081815260408083208585168452909152902054161561022f5760405162461bcd60e51b815260206004820152600b60248201526a504149525f45584953545360a81b6044820152606401610155565b600060405180602001610241906103dd565b601f1982820381018352601f9091011660408190526bffffffffffffffffffffffff19606086811b8216602084015285901b166034820152909150600090604801604051602081830303815290604052805190602001209050808251602084016000f560405163485cc95560e01b81526001600160a01b03868116600483015285811660248301529196509086169063485cc95590604401600060405180830381600087803b1580156102f357600080fd5b505af1158015610307573d6000803e3d6000fd5b505050506001600160a01b0384811660008181526020818152604080832088861680855290835281842080546001600160a01b0319908116978d1697881790915584845282852086865284528285208054821688179055600180548082018255958190527fb10e2d527612073b26eecdfd717e6a320cf44b4afac2b0732d9fcbe2b7fa0cf6909501805490911687179055925481519586529185019190915290927f0d3648bd0f6ba80134a33ba9275ac585d9d315f0ad8355cddefde31afa28d0e9910160405180910390a35050505092915050565b611e558061045383390190565b6000602082840312156103fc57600080fd5b5035919050565b80356001600160a01b038116811461041a57600080fd5b919050565b6000806040838503121561043257600080fd5b61043b83610403565b915061044960208401610403565b9050925092905056fe60806040523480156200001157600080fd5b506040518060400160405280601281526020017129b4b6b83632a232bc102628102a37b5b2b760711b81525060405180604001604052806004815260200163053444c560e41b81525081600390816200006b91906200012d565b5060046200007a82826200012d565b5050600160055550620001f9565b634e487b7160e01b600052604160045260246000fd5b600181811c90821680620000b357607f821691505b602082108103620000d457634e487b7160e01b600052602260045260246000fd5b50919050565b601f8211156200012857600081815260208120601f850160051c81016020861015620001035750805b601f850160051c820191505b8181101562000124578281556001016200010f565b5050505b505050565b81516001600160401b0381111562000149576200014962000088565b62000161816200015a84546200009e565b84620000da565b602080601f831160018114620001995760008415620001805750858301515b600019600386901b1c1916600185901b17855562000124565b600085815260208120601f198616915b82811015620001ca57888601518255948401946001909101908401620001a9565b5085821015620001e95787850151600019600388901b60f8161c191681555b5050505050600190811b01905550565b611c4c80620002096000396000f3fe608060405234801561001057600080fd5b50600436106101215760003560e01c80636a627842116100ad578063a457c2d711610071578063a457c2d7146102a1578063a9059cbb146102b4578063ba9a7a56146102c7578063d21220a7146102d0578063dd62ed3e146102e357600080fd5b80636a627842146102225780636d9a640a1461023557806370a082311461024857806389afcb441461027157806395d89b411461029957600080fd5b806318160ddd116100f457806318160ddd146101c657806323b872dd146101d8578063313ce567146101eb57806339509351146101fa578063485cc9551461020d57600080fd5b806306fdde03146101265780630902f1ac14610144578063095ea7b3146101785780630dfe16811461019b575b600080fd5b61012e6102f6565b60405161013b9190611962565b60405180910390f35b61014c610388565b604080516001600160701b03948516815293909216602084015263ffffffff169082015260600161013b565b61018b61018636600461198c565b6103b2565b604051901515815260200161013b565b6006546101ae906001600160a01b031681565b6040516001600160a01b03909116815260200161013b565b6002545b60405190815260200161013b565b61018b6101e63660046119b6565b6103cc565b6040516012815260200161013b565b61018b61020836600461198c565b6103f0565b61022061021b3660046119f2565b610412565b005b6101ca610230366004611a25565b610494565b610220610243366004611a40565b61075a565b6101ca610256366004611a25565b6001600160a01b031660009081526020819052604090205490565b61028461027f366004611a25565b610c6f565b6040805192835260208301919091520161013b565b61012e610f72565b61018b6102af36600461198c565b610f81565b61018b6102c236600461198c565b610ffc565b6101ca6103e881565b6007546101ae906001600160a01b031681565b6101ca6102f13660046119f2565b61100a565b60606003805461030590611a75565b80601f016020809104026020016040519081016040528092919081815260200182805461033190611a75565b801561037e5780601f106103535761010080835404028352916020019161037e565b820191906000526020600020905b81548152906001019060200180831161036157829003601f168201915b5050505050905090565b6008546001600160701b0380821692600160701b830490911691600160e01b900463ffffffff1690565b6000336103c0818585611035565b60019150505b92915050565b6000336103da858285611159565b6103e58585856111d3565b506001949350505050565b6000336103c0818585610403838361100a565b61040d9190611abf565b611035565b6006546001600160a01b0316156104665760405162461bcd60e51b81526020600482015260136024820152721053149150511657d253925512505312569151606a1b60448201526064015b60405180910390fd5b600680546001600160a01b039384166001600160a01b03199182161790915560078054929093169116179055565b600061049e611377565b6000806104a9610388565b506006546040516370a0823160e01b81523060048201529294509092506000916001600160a01b03909116906370a0823190602401602060405180830381865afa1580156104fb573d6000803e3d6000fd5b505050506040513d601f19601f8201168201806040525081019061051f9190611ad2565b6007546040516370a0823160e01b81523060048201529192506000916001600160a01b03909116906370a0823190602401602060405180830381865afa15801561056d573d6000803e3d6000fd5b505050506040513d601f19601f820116820180604052508101906105919190611ad2565b905060006105a86001600160701b03861684611aeb565b905060006105bf6001600160701b03861684611aeb565b905060006105cc60025490565b90508060000361065c576105e86105e38385611afe565b6113d0565b97506103e8881161063b5760405162461bcd60e51b815260206004820152601e60248201527f494e53554646494349454e545f494e495449414c5f4c49515549444954590000604482015260640161045d565b61064961dead6103e861143f565b6106556103e889611aeb565b97506106a3565b6106a06001600160701b0388166106738386611afe565b61067d9190611b2b565b6001600160701b0388166106918486611afe565b61069b9190611b2b565b6114fe565b97505b600088116106f35760405162461bcd60e51b815260206004820152601d60248201527f494e53554646494349454e545f4c49515549444954595f4d494e544544000000604482015260640161045d565b6106fd898961143f565b61070985858989611516565b604080518481526020810184905233917f4c209b5fc8ad50758f13e2e1088ba56a560dff690a1c6fef26394f4c03821c4f910160405180910390a2505050505050506107556001600555565b919050565b610762611377565b60008311806107715750600082115b6107bd5760405162461bcd60e51b815260206004820152601a60248201527f494e53554646494349454e545f4f55545055545f414d4f554e54000000000000604482015260640161045d565b6000806107c8610388565b509150915061081f6040518060400160405280601a81526020017f72657365727665303a2025732c2072657365727665313a202573000000000000815250836001600160701b0316836001600160701b0316611616565b816001600160701b03168510801561083f5750806001600160701b031684105b6108845760405162461bcd60e51b8152602060048201526016602482015275494e53554646494349454e545f4c495155494449545960501b604482015260640161045d565b60065460075460009182916001600160a01b039182169190811690871682148015906108c25750806001600160a01b0316876001600160a01b031614155b6108fb5760405162461bcd60e51b815260206004820152600a602482015269494e56414c49445f544f60b01b604482015260640161045d565b881561090c5761090c82888b61165d565b871561091d5761091d81888a61165d565b6040516370a0823160e01b81523060048201526001600160a01b038316906370a0823190602401602060405180830381865afa158015610961573d6000803e3d6000fd5b505050506040513d601f19601f820116820180604052508101906109859190611ad2565b6040516370a0823160e01b81523060048201529094506001600160a01b038216906370a0823190602401602060405180830381865afa1580156109cc573d6000803e3d6000fd5b505050506040513d601f19601f820116820180604052508101906109f09190611ad2565b92505050600087856001600160701b0316610a0b9190611aeb565b8311610a18576000610a35565b610a2b886001600160701b038716611aeb565b610a359084611aeb565b90506000610a4c886001600160701b038716611aeb565b8311610a59576000610a76565b610a6c886001600160701b038716611aeb565b610a769084611aeb565b9050610ab86040518060400160405280601c81526020017f616d6f756e7430496e3a2025732c20616d6f756e7431496e3a202573000000008152508383611616565b6000821180610ac75750600081115b610b135760405162461bcd60e51b815260206004820152601960248201527f494e53554646494349454e545f494e5055545f414d4f554e5400000000000000604482015260640161045d565b6000610b21856103e8611afe565b90506000610b31856103e8611afe565b90508315610b5157610b44846003611afe565b610b4e9083611aeb565b91505b8215610b6f57610b62836003611afe565b610b6c9082611aeb565b90505b6000610b876001600160701b03808a16908b16611afe565b9050610bad604051806060016040528060318152602001611be66031913984848461176a565b610bba81620f4240611afe565b610bc48385611afe565b1015610bf65760405162461bcd60e51b81526020600482015260016024820152604b60f81b604482015260640161045d565b505050610c0584848888611516565b60408051838152602081018390529081018a9052606081018990526001600160a01b0388169033907fd78ad95fa46c994b6551d0da85fc275fe613ce37657fb8d5e3d130840159d8229060800160405180910390a3505050505050610c6a6001600555565b505050565b600080610c7a611377565b6006546040516370a0823160e01b81523060048201526000916001600160a01b0316906370a0823190602401602060405180830381865afa158015610cc3573d6000803e3d6000fd5b505050506040513d601f19601f82011682018060405250810190610ce79190611ad2565b6007546040516370a0823160e01b81523060048201529192506000916001600160a01b03909116906370a0823190602401602060405180830381865afa158015610d35573d6000803e3d6000fd5b505050506040513d601f19601f82011682018060405250810190610d599190611ad2565b306000908152602081905260409020546002549192509080610d7b8584611afe565b610d859190611b2b565b955080610d928484611afe565b610d9c9190611b2b565b9450600086118015610dae5750600085115b610dfa5760405162461bcd60e51b815260206004820152601d60248201527f494e53554646494349454e545f4c49515549444954595f4255524e4544000000604482015260640161045d565b610e0430836117b3565b600654610e1b906001600160a01b0316888861165d565b600754610e32906001600160a01b0316888761165d565b6006546040516370a0823160e01b81523060048201526001600160a01b03909116906370a0823190602401602060405180830381865afa158015610e7a573d6000803e3d6000fd5b505050506040513d601f19601f82011682018060405250810190610e9e9190611ad2565b6007546040516370a0823160e01b81523060048201529195506001600160a01b0316906370a0823190602401602060405180830381865afa158015610ee7573d6000803e3d6000fd5b505050506040513d601f19601f82011682018060405250810190610f0b9190611ad2565b9250610f1984848686611516565b60408051878152602081018790526001600160a01b0389169133917fdccd412f0b1252819cb1fd330b93224ca42612892bb3f4f789976e6d81936496910160405180910390a350505050610f6d6001600555565b915091565b60606004805461030590611a75565b60003381610f8f828661100a565b905083811015610fef5760405162461bcd60e51b815260206004820152602560248201527f45524332303a2064656372656173656420616c6c6f77616e63652062656c6f77604482015264207a65726f60d81b606482015260840161045d565b6103e58286868403611035565b6000336103c08185856111d3565b6001600160a01b03918216600090815260016020908152604080832093909416825291909152205490565b6001600160a01b0383166110975760405162461bcd60e51b8152602060048201526024808201527f45524332303a20617070726f76652066726f6d20746865207a65726f206164646044820152637265737360e01b606482015260840161045d565b6001600160a01b0382166110f85760405162461bcd60e51b815260206004820152602260248201527f45524332303a20617070726f766520746f20746865207a65726f206164647265604482015261737360f01b606482015260840161045d565b6001600160a01b0383811660008181526001602090815260408083209487168084529482529182902085905590518481527f8c5be1e5ebec7d5bd14f71427d1e84f3dd0314c0f7b2291e5b200ac8c7c3b925910160405180910390a3505050565b6000611165848461100a565b905060001981146111cd57818110156111c05760405162461bcd60e51b815260206004820152601d60248201527f45524332303a20696e73756666696369656e7420616c6c6f77616e6365000000604482015260640161045d565b6111cd8484848403611035565b50505050565b6001600160a01b0383166112375760405162461bcd60e51b815260206004820152602560248201527f45524332303a207472616e736665722066726f6d20746865207a65726f206164604482015264647265737360d81b606482015260840161045d565b6001600160a01b0382166112995760405162461bcd60e51b815260206004820152602360248201527f45524332303a207472616e7366657220746f20746865207a65726f206164647260448201526265737360e81b606482015260840161045d565b6001600160a01b038316600090815260208190526040902054818110156113115760405162461bcd60e51b815260206004820152602660248201527f45524332303a207472616e7366657220616d6f756e7420657863656564732062604482015265616c616e636560d01b606482015260840161045d565b6001600160a01b03848116600081815260208181526040808320878703905593871680835291849020805487019055925185815290927fddf252ad1be2c89b69c2b068fc378daa952ba7f163c4a11628f55a4df523b3ef910160405180910390a36111cd565b6002600554036113c95760405162461bcd60e51b815260206004820152601f60248201527f5265656e7472616e637947756172643a207265656e7472616e742063616c6c00604482015260640161045d565b6002600555565b6000600382111561143157508060006113ea600283611b2b565b6113f5906001611abf565b90505b8181101561142b579050806002816114108186611b2b565b61141a9190611abf565b6114249190611b2b565b90506113f8565b50919050565b811561075557506001919050565b6001600160a01b0382166114955760405162461bcd60e51b815260206004820152601f60248201527f45524332303a206d696e7420746f20746865207a65726f206164647265737300604482015260640161045d565b80600260008282546114a79190611abf565b90915550506001600160a01b038216600081815260208181526040808320805486019055518481527fddf252ad1be2c89b69c2b068fc378daa952ba7f163c4a11628f55a4df523b3ef910160405180910390a35050565b600081831061150d578161150f565b825b9392505050565b6001600160701b03841180159061153457506001600160701b038311155b61156b5760405162461bcd60e51b81526020600482015260086024820152674f564552464c4f5760c01b604482015260640161045d565b600061157c64010000000042611b3f565b6008805463ffffffff8316600160e01b026001600160e01b036001600160701b03898116600160701b9081026001600160e01b03199095168c83161794909417918216831794859055604080519382169282169290921783529290930490911660208201529192507f1c411e9a96e071241c2f21f7726b17ae89e3cab4c78be50e062b03a9fffbbad1910160405180910390a15050505050565b610c6a83838360405160240161162e93929190611b53565b60408051601f198184030181529190526020810180516001600160e01b031663ca47c4eb60e01b1790526118e5565b604080516001600160a01b038481166024830152604480830185905283518084039091018152606490920183526020820180516001600160e01b031663a9059cbb60e01b17905291516000928392908716916116b99190611b78565b6000604051808303816000865af19150503d80600081146116f6576040519150601f19603f3d011682016040523d82523d6000602084013e6116fb565b606091505b50915091508180156117255750805115806117255750808060200190518101906117259190611b94565b6117635760405162461bcd60e51b815260206004820152600f60248201526e1514905394d1915497d19052531151608a1b604482015260640161045d565b5050505050565b6111cd848484846040516024016117849493929190611bb6565b60408051601f198184030181529190526020810180516001600160e01b031663a7a8785360e01b1790526118e5565b6001600160a01b0382166118135760405162461bcd60e51b815260206004820152602160248201527f45524332303a206275726e2066726f6d20746865207a65726f206164647265736044820152607360f81b606482015260840161045d565b6001600160a01b038216600090815260208190526040902054818110156118875760405162461bcd60e51b815260206004820152602260248201527f45524332303a206275726e20616d6f756e7420657863656564732062616c616e604482015261636560f01b606482015260840161045d565b6001600160a01b0383166000818152602081815260408083208686039055600280548790039055518581529192917fddf252ad1be2c89b69c2b068fc378daa952ba7f163c4a11628f55a4df523b3ef910160405180910390a3505050565b6118ee816118f1565b50565b60006a636f6e736f6c652e6c6f679050600080835160208501845afa505050565b60005b8381101561192d578181015183820152602001611915565b50506000910152565b6000815180845261194e816020860160208601611912565b601f01601f19169290920160200192915050565b60208152600061150f6020830184611936565b80356001600160a01b038116811461075557600080fd5b6000806040838503121561199f57600080fd5b6119a883611975565b946020939093013593505050565b6000806000606084860312156119cb57600080fd5b6119d484611975565b92506119e260208501611975565b9150604084013590509250925092565b60008060408385031215611a0557600080fd5b611a0e83611975565b9150611a1c60208401611975565b90509250929050565b600060208284031215611a3757600080fd5b61150f82611975565b600080600060608486031215611a5557600080fd5b8335925060208401359150611a6c60408501611975565b90509250925092565b600181811c90821680611a8957607f821691505b60208210810361142b57634e487b7160e01b600052602260045260246000fd5b634e487b7160e01b600052601160045260246000fd5b808201808211156103c6576103c6611aa9565b600060208284031215611ae457600080fd5b5051919050565b818103818111156103c6576103c6611aa9565b80820281158282048414176103c6576103c6611aa9565b634e487b7160e01b600052601260045260246000fd5b600082611b3a57611b3a611b15565b500490565b600082611b4e57611b4e611b15565b500690565b606081526000611b666060830186611936565b60208301949094525060400152919050565b60008251611b8a818460208701611912565b9190910192915050565b600060208284031215611ba657600080fd5b8151801515811461150f57600080fd5b608081526000611bc96080830187611936565b602083019590955250604081019290925260609091015291905056fe62616c616e63653041646a75737465643a2025732c2062616c616e63653141646a75737465643a2025732c204b3a202573a2646970667358221220b3f8e483147a8b42ff89d7d76f06f077de748d3971dc5af96e2212b0af0a6b7164736f6c63430008110033a264697066735822122092f24a55a875b89192ace5546bdd415f0406e6676c11dd57e7bc4a1d4184f93064736f6c63430008110033",
  "linkReferences": {},
  "deployedLinkReferences": {}
}