{
  "_format": "hh-sol-artifact-1",
  "contractName": "Factory",
  "sourceName": "contracts/Factory.sol",
  "abi": [
    {
      "anonymous": false,
      "inputs": [
        {
          "indexed": true,
          "internalType": "address",
          "name": "token0",
          "type": "address"
        },
        {
          "indexed": true,
          "internalType": "address",
          "name": "token1",
          "type": "address"
        },
        {
          "indexed": false,
          "internalType": "address",
          "name": "pair",
          "type": "address"
        },
        {
          "indexed": false,
          "internalType": "uint256",
          "name": "",
          "type": "uint256"
        }
      ],
      "name": "PairCreated",
      "type": "event"
    },
    {
      "inputs": [
        {
          "internalType": "uint256",
          "name": "",
          "type": "uint256"
        }
      ],
      "name": "allPairs",
      "outputs": [
        {
          "internalType": "address",
          "name": "",
          "type": "address"
        }
      ],
      "stateMutability": "view",
      "type": "function"
    },
    {
      "inputs": [],
      "name": "allPairsLength",
      "outputs": [
        {
          "internalType": "uint256",
          "name": "",
          "type": "uint256"
        }
      ],
      "stateMutability": "view",
      "type": "function"
    },
    {
      "inputs": [
        {
          "internalType": "address",
          "name": "tokenA",
          "type": "address"
        },
        {
          "internalType": "address",
          "name": "tokenB",
          "type": "address"
        }
      ],
      "name": "createPair",
      "outputs": [
        {
          "internalType": "address",
          "name": "pair",
          "type": "address"
        }
      ],
      "stateMutability": "nonpayable",
      "type": "function"
    },
    {
      "inputs": [
        {
          "internalType": "address",
          "name": "",
          "type": "address"
        },
        {
          "internalType": "address",
          "name": "",
          "type": "address"
        }
      ],
      "name": "getPair",
      "outputs": [
        {
          "internalType": "address",
          "name": "",
          "type": "address"
        }
      ],
      "stateMutability": "view",
      "type": "function"
    }
  ],
  "bytecode": "0x608060405234801561001057600080fd5b506120d9806100206000396000f3fe608060405234801561001057600080fd5b506004361061004c5760003560e01c80631e3dd18b14610051578063574f2ba314610081578063c9c6539614610092578063e6a43905146100a5575b600080fd5b61006461005f3660046103ea565b6100d6565b6040516001600160a01b0390911681526020015b60405180910390f35b600154604051908152602001610078565b6100646100a036600461041f565b610100565b6100646100b336600461041f565b60006020818152928152604080822090935290815220546001600160a01b031681565b600181815481106100e657600080fd5b6000918252602090912001546001600160a01b0316905081565b6000816001600160a01b0316836001600160a01b03160361015e5760405162461bcd60e51b81526020600482015260136024820152724944454e544943414c5f41444452455353455360681b60448201526064015b60405180910390fd5b600080836001600160a01b0316856001600160a01b031610610181578385610184565b84845b90925090506001600160a01b0382166101ce5760405162461bcd60e51b815260206004820152600c60248201526b5a45524f5f4144445245535360a01b6044820152606401610155565b6001600160a01b038281166000908152602081815260408083208585168452909152902054161561022f5760405162461bcd60e51b815260206004820152600b60248201526a504149525f45584953545360a81b6044820152606401610155565b600060405180602001610241906103dd565b601f1982820381018352601f9091011660408190526bffffffffffffffffffffffff19606086811b8216602084015285901b166034820152909150600090604801604051602081830303815290604052805190602001209050808251602084016000f560405163485cc95560e01b81526001600160a01b03868116600483015285811660248301529196509086169063485cc95590604401600060405180830381600087803b1580156102f357600080fd5b505af1158015610307573d6000803e3d6000fd5b505050506001600160a01b0384811660008181526020818152604080832088861680855290835281842080546001600160a01b0319908116978d1697881790915584845282852086865284528285208054821688179055600180548082018255958190527fb10e2d527612073b26eecdfd717e6a320cf44b4afac2b0732d9fcbe2b7fa0cf6909501805490911687179055925481519586529185019190915290927f0d3648bd0f6ba80134a33ba9275ac585d9d315f0ad8355cddefde31afa28d0e9910160405180910390a35050505092915050565b611c518061045383390190565b6000602082840312156103fc57600080fd5b5035919050565b80356001600160a01b038116811461041a57600080fd5b919050565b6000806040838503121561043257600080fd5b61043b83610403565b915061044960208401610403565b9050925092905056fe60806040523480156200001157600080fd5b506040518060400160405280601281526020017129b4b6b83632a232bc102628102a37b5b2b760711b81525060405180604001604052806004815260200163053444c560e41b81525081600390816200006b91906200012d565b5060046200007a82826200012d565b5050600160055550620001f9565b634e487b7160e01b600052604160045260246000fd5b600181811c90821680620000b357607f821691505b602082108103620000d457634e487b7160e01b600052602260045260246000fd5b50919050565b601f8211156200012857600081815260208120601f850160051c81016020861015620001035750805b601f850160051c820191505b8181101562000124578281556001016200010f565b5050505b505050565b81516001600160401b0381111562000149576200014962000088565b62000161816200015a84546200009e565b84620000da565b602080601f831160018114620001995760008415620001805750858301515b600019600386901b1c1916600185901b17855562000124565b600085815260208120601f198616915b82811015620001ca57888601518255948401946001909101908401620001a9565b5085821015620001e95787850151600019600388901b60f8161c191681555b5050505050600190811b01905550565b611a4880620002096000396000f3fe608060405234801561001057600080fd5b50600436106101215760003560e01c80636a627842116100ad578063a457c2d711610071578063a457c2d7146102a1578063a9059cbb146102b4578063ba9a7a56146102c7578063d21220a7146102d0578063dd62ed3e146102e357600080fd5b80636a627842146102225780636d9a640a1461023557806370a082311461024857806389afcb441461027157806395d89b411461029957600080fd5b806318160ddd116100f457806318160ddd146101c657806323b872dd146101d8578063313ce567146101eb57806339509351146101fa578063485cc9551461020d57600080fd5b806306fdde03146101265780630902f1ac14610144578063095ea7b3146101785780630dfe16811461019b575b600080fd5b61012e6102f6565b60405161013b91906117c3565b60405180910390f35b61014c610388565b604080516001600160701b03948516815293909216602084015263ffffffff169082015260600161013b565b61018b61018636600461180d565b6103b2565b604051901515815260200161013b565b6006546101ae906001600160a01b031681565b6040516001600160a01b03909116815260200161013b565b6002545b60405190815260200161013b565b61018b6101e6366004611837565b6103cc565b6040516012815260200161013b565b61018b61020836600461180d565b6103f0565b61022061021b366004611873565b610412565b005b6101ca6102303660046118a6565b610494565b6102206102433660046118c1565b61075a565b6101ca6102563660046118a6565b6001600160a01b031660009081526020819052604090205490565b61028461027f3660046118a6565b610bb9565b6040805192835260208301919091520161013b565b61012e610ebc565b61018b6102af36600461180d565b610ecb565b61018b6102c236600461180d565b610f46565b6101ca6103e881565b6007546101ae906001600160a01b031681565b6101ca6102f1366004611873565b610f54565b606060038054610305906118f6565b80601f0160208091040260200160405190810160405280929190818152602001828054610331906118f6565b801561037e5780601f106103535761010080835404028352916020019161037e565b820191906000526020600020905b81548152906001019060200180831161036157829003601f168201915b5050505050905090565b6008546001600160701b0380821692600160701b830490911691600160e01b900463ffffffff1690565b6000336103c0818585610f7f565b60019150505b92915050565b6000336103da8582856110a3565b6103e585858561111d565b506001949350505050565b6000336103c08185856104038383610f54565b61040d9190611940565b610f7f565b6006546001600160a01b0316156104665760405162461bcd60e51b81526020600482015260136024820152721053149150511657d253925512505312569151606a1b60448201526064015b60405180910390fd5b600680546001600160a01b039384166001600160a01b03199182161790915560078054929093169116179055565b600061049e6112c1565b6000806104a9610388565b506006546040516370a0823160e01b81523060048201529294509092506000916001600160a01b03909116906370a0823190602401602060405180830381865afa1580156104fb573d6000803e3d6000fd5b505050506040513d601f19601f8201168201806040525081019061051f9190611953565b6007546040516370a0823160e01b81523060048201529192506000916001600160a01b03909116906370a0823190602401602060405180830381865afa15801561056d573d6000803e3d6000fd5b505050506040513d601f19601f820116820180604052508101906105919190611953565b905060006105a86001600160701b0386168461196c565b905060006105bf6001600160701b0386168461196c565b905060006105cc60025490565b90508060000361065c576105e86105e3838561197f565b61131a565b97506103e8881161063b5760405162461bcd60e51b815260206004820152601e60248201527f494e53554646494349454e545f494e495449414c5f4c49515549444954590000604482015260640161045d565b61064961dead6103e8611389565b6106556103e88961196c565b97506106a3565b6106a06001600160701b038816610673838661197f565b61067d91906119ac565b6001600160701b038816610691848661197f565b61069b91906119ac565b611448565b97505b600088116106f35760405162461bcd60e51b815260206004820152601d60248201527f494e53554646494349454e545f4c49515549444954595f4d494e544544000000604482015260640161045d565b6106fd8989611389565b61070985858989611460565b604080518481526020810184905233917f4c209b5fc8ad50758f13e2e1088ba56a560dff690a1c6fef26394f4c03821c4f910160405180910390a2505050505050506107556001600555565b919050565b6107626112c1565b60008311806107715750600082115b6107bd5760405162461bcd60e51b815260206004820152601a60248201527f494e53554646494349454e545f4f55545055545f414d4f554e54000000000000604482015260640161045d565b6000806107c8610388565b5091509150816001600160701b0316851080156107ed5750806001600160701b031684105b6108325760405162461bcd60e51b8152602060048201526016602482015275494e53554646494349454e545f4c495155494449545960501b604482015260640161045d565b60065460075460009182916001600160a01b039182169190811690871682148015906108705750806001600160a01b0316876001600160a01b031614155b6108a95760405162461bcd60e51b815260206004820152600a602482015269494e56414c49445f544f60b01b604482015260640161045d565b88156108ba576108ba82888b611560565b87156108cb576108cb81888a611560565b6040516370a0823160e01b81523060048201526001600160a01b038316906370a0823190602401602060405180830381865afa15801561090f573d6000803e3d6000fd5b505050506040513d601f19601f820116820180604052508101906109339190611953565b6040516370a0823160e01b81523060048201529094506001600160a01b038216906370a0823190602401602060405180830381865afa15801561097a573d6000803e3d6000fd5b505050506040513d601f19601f8201168201806040525081019061099e9190611953565b92505050600087856001600160701b03166109b9919061196c565b83116109c65760006109e3565b6109d9886001600160701b03871661196c565b6109e3908461196c565b905060006109fa886001600160701b03871661196c565b8311610a07576000610a24565b610a1a886001600160701b03871661196c565b610a24908461196c565b90506000821180610a355750600081115b610a815760405162461bcd60e51b815260206004820152601960248201527f494e53554646494349454e545f494e5055545f414d4f554e5400000000000000604482015260640161045d565b6000610a8f856103e861197f565b90506000610a9f856103e861197f565b90508315610abf57610ab284600361197f565b610abc908361196c565b91505b8215610add57610ad083600361197f565b610ada908261196c565b90505b6000610af56001600160701b03808a16908b1661197f565b9050610b0481620f424061197f565b610b0e838561197f565b1015610b405760405162461bcd60e51b81526020600482015260016024820152604b60f81b604482015260640161045d565b505050610b4f84848888611460565b60408051838152602081018390529081018a9052606081018990526001600160a01b0388169033907fd78ad95fa46c994b6551d0da85fc275fe613ce37657fb8d5e3d130840159d8229060800160405180910390a3505050505050610bb46001600555565b505050565b600080610bc46112c1565b6006546040516370a0823160e01b81523060048201526000916001600160a01b0316906370a0823190602401602060405180830381865afa158015610c0d573d6000803e3d6000fd5b505050506040513d601f19601f82011682018060405250810190610c319190611953565b6007546040516370a0823160e01b81523060048201529192506000916001600160a01b03909116906370a0823190602401602060405180830381865afa158015610c7f573d6000803e3d6000fd5b505050506040513d601f19601f82011682018060405250810190610ca39190611953565b306000908152602081905260409020546002549192509080610cc5858461197f565b610ccf91906119ac565b955080610cdc848461197f565b610ce691906119ac565b9450600086118015610cf85750600085115b610d445760405162461bcd60e51b815260206004820152601d60248201527f494e53554646494349454e545f4c49515549444954595f4255524e4544000000604482015260640161045d565b610d4e308361166d565b600654610d65906001600160a01b03168888611560565b600754610d7c906001600160a01b03168887611560565b6006546040516370a0823160e01b81523060048201526001600160a01b03909116906370a0823190602401602060405180830381865afa158015610dc4573d6000803e3d6000fd5b505050506040513d601f19601f82011682018060405250810190610de89190611953565b6007546040516370a0823160e01b81523060048201529195506001600160a01b0316906370a0823190602401602060405180830381865afa158015610e31573d6000803e3d6000fd5b505050506040513d601f19601f82011682018060405250810190610e559190611953565b9250610e6384848686611460565b60408051878152602081018790526001600160a01b0389169133917fdccd412f0b1252819cb1fd330b93224ca42612892bb3f4f789976e6d81936496910160405180910390a350505050610eb76001600555565b915091565b606060048054610305906118f6565b60003381610ed98286610f54565b905083811015610f395760405162461bcd60e51b815260206004820152602560248201527f45524332303a2064656372656173656420616c6c6f77616e63652062656c6f77604482015264207a65726f60d81b606482015260840161045d565b6103e58286868403610f7f565b6000336103c081858561111d565b6001600160a01b03918216600090815260016020908152604080832093909416825291909152205490565b6001600160a01b038316610fe15760405162461bcd60e51b8152602060048201526024808201527f45524332303a20617070726f76652066726f6d20746865207a65726f206164646044820152637265737360e01b606482015260840161045d565b6001600160a01b0382166110425760405162461bcd60e51b815260206004820152602260248201527f45524332303a20617070726f766520746f20746865207a65726f206164647265604482015261737360f01b606482015260840161045d565b6001600160a01b0383811660008181526001602090815260408083209487168084529482529182902085905590518481527f8c5be1e5ebec7d5bd14f71427d1e84f3dd0314c0f7b2291e5b200ac8c7c3b925910160405180910390a3505050565b60006110af8484610f54565b90506000198114611117578181101561110a5760405162461bcd60e51b815260206004820152601d60248201527f45524332303a20696e73756666696369656e7420616c6c6f77616e6365000000604482015260640161045d565b6111178484848403610f7f565b50505050565b6001600160a01b0383166111815760405162461bcd60e51b815260206004820152602560248201527f45524332303a207472616e736665722066726f6d20746865207a65726f206164604482015264647265737360d81b606482015260840161045d565b6001600160a01b0382166111e35760405162461bcd60e51b815260206004820152602360248201527f45524332303a207472616e7366657220746f20746865207a65726f206164647260448201526265737360e81b606482015260840161045d565b6001600160a01b0383166000908152602081905260409020548181101561125b5760405162461bcd60e51b815260206004820152602660248201527f45524332303a207472616e7366657220616d6f756e7420657863656564732062604482015265616c616e636560d01b606482015260840161045d565b6001600160a01b03848116600081815260208181526040808320878703905593871680835291849020805487019055925185815290927fddf252ad1be2c89b69c2b068fc378daa952ba7f163c4a11628f55a4df523b3ef910160405180910390a3611117565b6002600554036113135760405162461bcd60e51b815260206004820152601f60248201527f5265656e7472616e637947756172643a207265656e7472616e742063616c6c00604482015260640161045d565b6002600555565b6000600382111561137b57508060006113346002836119ac565b61133f906001611940565b90505b818110156113755790508060028161135a81866119ac565b6113649190611940565b61136e91906119ac565b9050611342565b50919050565b811561075557506001919050565b6001600160a01b0382166113df5760405162461bcd60e51b815260206004820152601f60248201527f45524332303a206d696e7420746f20746865207a65726f206164647265737300604482015260640161045d565b80600260008282546113f19190611940565b90915550506001600160a01b038216600081815260208181526040808320805486019055518481527fddf252ad1be2c89b69c2b068fc378daa952ba7f163c4a11628f55a4df523b3ef910160405180910390a35050565b60008183106114575781611459565b825b9392505050565b6001600160701b03841180159061147e57506001600160701b038311155b6114b55760405162461bcd60e51b81526020600482015260086024820152674f564552464c4f5760c01b604482015260640161045d565b60006114c6640100000000426119c0565b6008805463ffffffff8316600160e01b026001600160e01b036001600160701b03898116600160701b9081026001600160e01b03199095168c83161794909417918216831794859055604080519382169282169290921783529290930490911660208201529192507f1c411e9a96e071241c2f21f7726b17ae89e3cab4c78be50e062b03a9fffbbad1910160405180910390a15050505050565b604080516001600160a01b038481166024830152604480830185905283518084039091018152606490920183526020820180516001600160e01b031663a9059cbb60e01b17905291516000928392908716916115bc91906119d4565b6000604051808303816000865af19150503d80600081146115f9576040519150601f19603f3d011682016040523d82523d6000602084013e6115fe565b606091505b509150915081801561162857508051158061162857508080602001905181019061162891906119f0565b6116665760405162461bcd60e51b815260206004820152600f60248201526e1514905394d1915497d19052531151608a1b604482015260640161045d565b5050505050565b6001600160a01b0382166116cd5760405162461bcd60e51b815260206004820152602160248201527f45524332303a206275726e2066726f6d20746865207a65726f206164647265736044820152607360f81b606482015260840161045d565b6001600160a01b038216600090815260208190526040902054818110156117415760405162461bcd60e51b815260206004820152602260248201527f45524332303a206275726e20616d6f756e7420657863656564732062616c616e604482015261636560f01b606482015260840161045d565b6001600160a01b0383166000818152602081815260408083208686039055600280548790039055518581529192917fddf252ad1be2c89b69c2b068fc378daa952ba7f163c4a11628f55a4df523b3ef910160405180910390a3505050565b60005b838110156117ba5781810151838201526020016117a2565b50506000910152565b60208152600082518060208401526117e281604085016020870161179f565b601f01601f19169190910160400192915050565b80356001600160a01b038116811461075557600080fd5b6000806040838503121561182057600080fd5b611829836117f6565b946020939093013593505050565b60008060006060848603121561184c57600080fd5b611855846117f6565b9250611863602085016117f6565b9150604084013590509250925092565b6000806040838503121561188657600080fd5b61188f836117f6565b915061189d602084016117f6565b90509250929050565b6000602082840312156118b857600080fd5b611459826117f6565b6000806000606084860312156118d657600080fd5b83359250602084013591506118ed604085016117f6565b90509250925092565b600181811c9082168061190a57607f821691505b60208210810361137557634e487b7160e01b600052602260045260246000fd5b634e487b7160e01b600052601160045260246000fd5b808201808211156103c6576103c661192a565b60006020828403121561196557600080fd5b5051919050565b818103818111156103c6576103c661192a565b80820281158282048414176103c6576103c661192a565b634e487b7160e01b600052601260045260246000fd5b6000826119bb576119bb611996565b500490565b6000826119cf576119cf611996565b500690565b600082516119e681846020870161179f565b9190910192915050565b600060208284031215611a0257600080fd5b8151801515811461145957600080fdfea2646970667358221220fc25ed268656def3b38c7057db8354f5d911258106d2ba056845dba85ad7ca7664736f6c63430008110033a264697066735822122009e83acddd4479dd6236fc3dec5004bee8405e2b3bc1dc04af125dcfbbb4cbd664736f6c63430008110033",
  "linkReferences": {},
  "deployedLinkReferences": {}
}