{
  "_format": "hh-sol-artifact-1",
  "contractName": "Router",
  "sourceName": "contracts/Router.sol",
  "abi": [
    {
      "inputs": [
        {
          "internalType": "address",
          "name": "_factory",
          "type": "address"
        }
      ],
      "stateMutability": "nonpayable",
      "type": "constructor"
    },
    {
      "inputs": [
        {
          "internalType": "address",
          "name": "tokenA",
          "type": "address"
        },
        {
          "internalType": "address",
          "name": "tokenB",
          "type": "address"
        },
        {
          "internalType": "uint256",
          "name": "amountADesired",
          "type": "uint256"
        },
        {
          "internalType": "uint256",
          "name": "amountBDesired",
          "type": "uint256"
        },
        {
          "internalType": "uint256",
          "name": "amountAMin",
          "type": "uint256"
        },
        {
          "internalType": "uint256",
          "name": "amountBMin",
          "type": "uint256"
        },
        {
          "internalType": "address",
          "name": "to",
          "type": "address"
        },
        {
          "internalType": "uint256",
          "name": "deadline",
          "type": "uint256"
        }
      ],
      "name": "addLiquidity",
      "outputs": [
        {
          "internalType": "uint256",
          "name": "amountA",
          "type": "uint256"
        },
        {
          "internalType": "uint256",
          "name": "amountB",
          "type": "uint256"
        },
        {
          "internalType": "uint256",
          "name": "liquidity",
          "type": "uint256"
        }
      ],
      "stateMutability": "nonpayable",
      "type": "function"
    },
    {
      "inputs": [],
      "name": "factory",
      "outputs": [
        {
          "internalType": "contract Factory",
          "name": "",
          "type": "address"
        }
      ],
      "stateMutability": "view",
      "type": "function"
    }
  ],
  "bytecode": "0x608060405234801561001057600080fd5b506040516105b83803806105b883398101604081905261002f91610054565b600080546001600160a01b0319166001600160a01b0392909216919091179055610084565b60006020828403121561006657600080fd5b81516001600160a01b038116811461007d57600080fd5b9392505050565b610525806100936000396000f3fe608060405234801561001057600080fd5b50600436106100365760003560e01c8063c45a01551461003b578063e8e337001461006b575b600080fd5b60005461004e906001600160a01b031681565b6040516001600160a01b0390911681526020015b60405180910390f35b61007e610079366004610414565b610099565b60408051938452602084019290925290820152606001610062565b6000806000834211156100e55760405162461bcd60e51b815260206004820152600f60248201526e149bdd5d195c8e8811561412549151608a1b60448201526064015b60405180910390fd5b6000805460405163e6a4390560e01b81526001600160a01b038e811660048301528d811660248301529091169063e6a4390590604401602060405180830381865afa158015610138573d6000803e3d6000fd5b505050506040513d601f19601f8201168201806040525081019061015c9190610490565b90506001600160a01b0381166101e7576000546040516364e329cb60e11b81526001600160a01b038e811660048301528d811660248301529091169063c9c65396906044016020604051808303816000875af11580156101c0573d6000803e3d6000fd5b505050506040513d601f19601f820116820180604052508101906101e49190610490565b90505b6040516323b872dd60e01b81523360048201526001600160a01b038281166024830152604482018c90528d16906323b872dd906064016020604051808303816000875af115801561023c573d6000803e3d6000fd5b505050506040513d601f19601f8201168201806040525081019061026091906104b4565b506040516323b872dd60e01b81523360048201526001600160a01b038281166024830152604482018b90528c16906323b872dd906064016020604051808303816000875af11580156102b6573d6000803e3d6000fd5b505050506040513d601f19601f820116820180604052508101906102da91906104b4565b506040516335313c2160e11b81526001600160a01b038781166004830152821690636a627842906024016020604051808303816000875af1158015610323573d6000803e3d6000fd5b505050506040513d601f19601f8201168201806040525081019061034791906104d6565b9150878a10156103995760405162461bcd60e51b815260206004820152601d60248201527f526f757465723a20494e53554646494349454e545f415f414d4f554e5400000060448201526064016100dc565b868910156103e95760405162461bcd60e51b815260206004820152601d60248201527f526f757465723a20494e53554646494349454e545f425f414d4f554e5400000060448201526064016100dc565b50979a9699509697509495505050505050565b6001600160a01b038116811461041157600080fd5b50565b600080600080600080600080610100898b03121561043157600080fd5b883561043c816103fc565b9750602089013561044c816103fc565b965060408901359550606089013594506080890135935060a0890135925060c0890135610478816103fc565b8092505060e089013590509295985092959890939650565b6000602082840312156104a257600080fd5b81516104ad816103fc565b9392505050565b6000602082840312156104c657600080fd5b815180151581146104ad57600080fd5b6000602082840312156104e857600080fd5b505191905056fea26469706673582212200e5d0d480bb4103612b2881fa978696d416f0ea4730f5bcd5ba617187a43f28464736f6c63430008110033",
  "linkReferences": {},
  "deployedLinkReferences": {}
}